{
  "txid": "11fd052c8f87d6a541fd5f6e80b60ef9ecaeecf2d77147c54d2bb15f8e193818",
  "hash": "5cf37ea3d19ede193c2e98c201618df15b4165a46cb35137caf3190264f0f373",
  "version": 1,
  "size": 203,
  "vsize": 176,
  "weight": 704,
  "locktime": 0,
  "vin": [
    {
      "coinbase": "0298001a2f706f676f6c6f202d20666f73732069732066726565646f6d2f0dd001bc00000000",
      "txinwitness": [
        "0000000000000000000000000000000000000000000000000000000000000000"
      ],
      "sequence": 4294967295
    }
  ],
  "vout": [
    {
      "value": 25.00052029,
      "n": 0,
      "scriptPubKey": {
        "asm": "0 629cf95ea52e949c3c0ed47a0fbb41a6bc0b194d",
        "desc": "addr(bcrt1qv2w0jh49962fc0qw63aqlw6p567qkx2dj5kpg4)#fmqkyffy",
        "hex": "0014629cf95ea52e949c3c0ed47a0fbb41a6bc0b194d",
        "address": "bcrt1qv2w0jh49962fc0qw63aqlw6p567qkx2dj5kpg4",
        "type": "witness_v0_keyhash"
      }
    },
    {
      "value": 0.00000000,
      "n": 1,
      "scriptPubKey": {
        "asm": "OP_RETURN aa21a9eddaa2ef8f94277097f2e6f4c51f63cff7aac266edfbda60842baeb5b25acde7bb",
        "desc": "raw(6a24aa21a9eddaa2ef8f94277097f2e6f4c51f63cff7aac266edfbda60842baeb5b25acde7bb)#trnzrfvs",
        "hex": "6a24aa21a9eddaa2ef8f94277097f2e6f4c51f63cff7aac266edfbda60842baeb5b25acde7bb",
        "type": "nulldata"
      }
    }
  ],
  "hex": "010000000001010000000000000000000000000000000000000000000000000000000000000000ffffffff260298001a2f706f676f6c6f202d20666f73732069732066726565646f6d2f0dd001bc00000000ffffffff023dc4039500000000160014629cf95ea52e949c3c0ed47a0fbb41a6bc0b194d0000000000000000266a24aa21a9eddaa2ef8f94277097f2e6f4c51f63cff7aac266edfbda60842baeb5b25acde7bb0120000000000000000000000000000000000000000000000000000000000000000000000000",
  "blockhash": "0000000130c620693f24b879db09359fb6279b8b2736f4bd359d4208dc429092",
  "confirmations": 5,
  "time": 1753503332,
  "blocktime": 1753503332
}
